:020000040800F2
:10000000A00600204D020008D9140008991300082A
:1000100079140008F9030008C11500080000000069
:10002000000000000000000000000000E1140008D3
:100030000904000800000000DD140008E5140008B1
:1000400067020008670200086702000867020008EC
:1000500067020008670200086702000867020008DC
:1000600067020008670200086702000867020008CC
:1000700067020008670200086702000867020008BC
:1000800067020008670200086702000867020008AC
:10009000FD03000867020008670200086702000805
:1000A000670200086702000867020008670200088C
:1000B000670200086702000867020008670200087C
:1000C000670200086702000867020008670200086C
:1000D000670200086702000867020008670200085C
:1000E000670200086702000867020008670200084C
:1000F000670200086702000867020008670200083C
:10010000670200086702000867020008670200082B
:10011000670200086702000867020008670200081B
:10012000670200086702000867020008670200080B
:1001300067020008670200086702000867020008FB
:1001400067020008670200086702000867020008EB
:1001500067020008670200086702000867020008DB
:1001600067020008670200086702000867020008CB
:10017000670200086702000867020008000000002C
:1001800067020008670200086702000867020008AB
:10019000670200086702000867020008670200089B
:1001A00000000000000000006702000800F002F8F4
:1001B00000F03CF80AA090E8000C82448344AAF1C5
:1001C0000107DA4501D100F031F8AFF2090EBAE8C3
:1001D0000F0013F0010F18BFFB1A43F0010318477B
:1001E00088140000A8140000103A24BF78C878C111
:1001F000FAD8520724BF30C830C144BF04680C602D
:10020000704700000023002400250026103A28BF74
:1002100078C1FBD8520728BF30C148BF0B60704778
:100220001FB501F00BFA1FBD10B510BD00F0A9F805
:100230001146FFF7F5FF01F0E3F900F0C7F803B44A
:10024000FFF7F2FF03BC00F0CFF800000948804739
:1002500009480047FEE7FEE7FEE7FEE7FEE7FEE7A8
:10026000FEE7FEE7FEE7FEE704480549054A064BC0
:1002700070470000AD150008AD010008A000002087
:10028000A0060020A0020020A002002053EA020CD9
:1002900000F069802DE9F04B4FF00006002B1FBFE6
:1002A000B3FA83F503FA05F424FA05F65E4012BFAB
:1002B0001643B2FA82F502FA05F4C5F120051EBF15
:1002C00022FA05FC44EA0C04203556EA044C4FEAB5
:1002D000144418BF641C4FF000084FF0000990420E
:1002E00071EB030C39D3002919BFB1FA81F701FA78
:1002F00007F6B0FA80F700FA07F6C7F120071EBF2D
:1003000020FA07FC46EA0C062037B6FBF4FCA7EB04
:100310000507103F07F01F0BCBF120062CFA06F65D
:100320000CFA0BFB44BFB3460026202FA4BF5E4649
:100330004FF0000B5BEA060C08BF4FF0010B19EB06
:100340000B0948EB0608ABFB027C06FB02CC0BFB5F
:1003500003CCC01B71EB0C01C1E70B4602464146C2
:100360004846BDE8F08B13B5084318BF4FF0FF3087
:100370000146AFF30080BDE81C40704770477047EE
:100380007047754600F02CF8AE46050069465346A6
:1003900020F00700854618B020B5FFF765FFBDE8DF
:1003A00020404FF000064FF000074FF000084FF0DC
:1003B000000BAC46ACE8C009ACE8C009ACE8C00929
:1003C000ACE8C00921F007018D46704710B504461E
:1003D000AFF300802046BDE81040FFF730BF0000BB
:1003E000004870471000002001491820ABBEFEE70E
:1003F0002600020070470000FEE7000040F2700097
:10040000C2F2000000F0F2B870470000EFF3108075
:1004100072B600BFFEE7000090F82020013A012AE2
:1004200008D8006800F11402002013681943116015
:10043000704700BF00F1240201204FF480211368AF
:10044000194311607047000010B590F820E0D0F813
:1004500000C0AEF1010EBEF1010FDCF808E011D8CA
:100460001EF0E05F18D0CEF3016EBEF1030F1DD178
:1004700000F1240101204FF400020B681A430A60C6
:1004800010BD00BF00F1240101204FF480220B6851
:100490001A430A6010BD00BF00F1240101204FF48F
:1004A00000120B681A430A6010BD00BF012000FA59
:1004B0000EF01860886828B14B68CC6844EAC30322
:1004C000034303E00868CB6843EA40530CEB0E108B
:1004D000C0F880310B69C0F88431097D012905D14C
:1004E00000F5C2710B6843F480730B605168C0F86B
:1004F0008C11126800F5C071C0F88821002001221B
:100500000B681A430A6010BDB0B590F82020013A7C
:10051000012A2FD846F20060C4F20000026842F0BF
:1005200001020260026822F47C520260D1F814E0F9
:10053000CC694A6A0368012C43EA022202600EF089
:100540001F024FF0010303FA02F2C3696FEA020CC3
:1005500023EA0203C36113D02CBBC36803EA0C0374
:10056000C360CB688C8844EA034300EBCE04236469
:100570000B4611E0416A41F4802141620120B0BD87
:10058000C3681343C3600B688C8844EA034300EBE1
:10059000CE04236401F10C038C681B8843EA0443F6
:1005A00000EBCE04636443688D6943EA0204D1F82A
:1005B00010E0096A002D08BF03EA0C044460436997
:1005C000BEF1000F43EA020408BF03EA0C0401294C
:1005D000446102D1C1691143C161016821F0010187
:1005E00001600020B0BD0000704700002DE9F04F11
:1005F00081B0044600684669D0F804908768D0F856
:100600000CB0D0F810A0D0F81880F10704D1002564
:1006100030071DD424E000BFF90710D00121BA072C
:10062000816009D4780700F1AF80380700F1B68007
:10063000204600F0F9F902E0204600F0F7F9002525
:10064000F80500F18780F80300F1B180300707D585
:100650001BF0100004D0206845F400751021C16023
:10066000700708D51BF0080005D020680821C1607C
:10067000204600F0A1F9B00706D52068C0688007C1
:1006800002D0204600F09AF9700607D51AF0100043
:1006900004D0206845F4806510210161B00608D5BA
:1006A0001AF0080005D0206808210161204600F0FA
:1006B00087F9F00606D520680069800702D0204639
:1006C00000F080F9B00308D519F0100005D02068BB
:1006D00010214160204600F077F9F00308D519F0A9
:1006E000080005D0206808214160204600F0A8F9E4
:1006F000300440F19B805FEA497040F1948006F439
:10070000807008EA102028435FEA8871014648BFDC
:1007100041F00201B20558BF01465FEA48700D463C
:1007200048BF45F00405700558BF0D46300540F13F
:100730007A8018F0700000F07680103800090528E3
:100740006CD8DFE800F003595D61656945F0080584
:1007500064E000BF20684FF48071BA0581600BD45B
:10076000780515D438051DD4204600F061F9F8034A
:100770007FF56CAF1BE000BF204600F05BF9F8038B
:100780007FF564AF13E000BF4FF4006558E700BF8A
:1007900005F50055F8037FF559AF08E04FF4805593
:1007A0004EE700BF05F58045F8037FF54FAF2068A1
:1007B0004FF48031BA0381600AD4780310D438032F
:1007C00014D4204600F038F930073FF541AF47E731
:1007D000204600F033F930073FF53AAF40E700BF5D
:1007E00005F5004530073FF533AF39E705F58035AE
:1007F00030073FF52DAF33E745F010050EE000BFA1
:1008000045F020050AE000BF45F0400506E000BFC6
:1008100045F0800502E000BF45F4807520688169DD
:1008200021F07001816120680421416055B1606A46
:1008300040EA05012046616201B0BDE8F04FFFF7D4
:10084000D3BE00BF01B0BDE8F08F0000B0B5C8B1A5
:10085000044690F8200010B9204600F071F8206896
:10086000016841F00101016000F0E2F9054600BFB6
:1008700020684168C90707D100F0DAF9401B0B284E
:10088000F6D312E00120B0BD016821F00201016041
:1008900000F0CEF9054600BF2068416889070DD5F4
:1008A00000F0C6F9401B0B28F6D3606A052140F41E
:1008B00000306062012084F82010B0BD217E026803
:1008C000012922F0800208BF80320260617E026846
:1008D000012922F0400208BF40320260A17E026876
:1008E000012922F0200208BF20320260E17E026866
:1008F000012922F0100218BF10320260217F026825
:10090000012922F0080208BF08320260617F0268F4
:10091000012922F0040208BF04320260D4E901C2B6
:10092000D4E9033561691A432A431143ACF101024A
:100930001143C16100200121606284F82010B0BD24
:1009400080B586B0016846F20040C4F200008142E2
:1009500002D006B080BD00BF002143F630020191F5
:10096000C4F20202136900F5D43043F0007313613E
:10097000136903F000730193019B0191136843F025
:10098000080313601268022302F008020192019A20
:10099000CDE9023109210322059101A901920492B6
:1009A00000F064F814200021002200F0C5F91420A2
:1009B00000F0AEF906B080BD70470000704700003F
:1009C000704700007047000070470000B0B5044653
:1009D00090F8200001281DD1022084F82000206812
:1009E000016821F00101016000F022F9054600BF15
:1009F00020684068C00713D000F01AF9401B0B288C
:100A0000F6D3606A40F400306062052084F820006C
:100A10000120B0BD606A40F4002060620120B0BDDA
:100A200000206062B0BD0000704700007047000009
:100A300070470000704700007047000070470000DA
:100A400070470000B0B5044600F0F2F8054640F2E9
:100A50000000C2F200000078611C18BF044400BF0F
:100A600000F0E6F8401BA042FAD3B0BD2DE9F04FEC
:100A700082B000F13E4242F2004502F1FF77C4F23B
:100A800002050A2243F6004E4FEAB726A84208BFE5
:100A90000922C4F2010E092E38BF4FEAB722012500
:100AA000002600274FF00008009208E008F1010836
:100AB0000437B8F1100F06F1020600F0A7800C68A9
:100AC00005FA08F914EA090FF0D0D1F804B00322AE
:100AD0000BF0030CACF10104B240012C6FEA020AE6
:100AE00010D88268CC6802EA0A02B44022438260CD
:100AF0004268CBF3001422EA090204FA08F4224304
:100B0000426005E0BCF1030F02D14FF0030C20E07E
:100B1000C2688C6802EA0A02B4402243BCF1020FA8
:100B2000C26016D16FF0030202EA58020244D2F802
:100B300020C007F01C050F230C69AB402CEA03030F
:100B400004FA05F52B431362D1F804B001250BF02C
:100B5000030C02680CFA06F302EA0A021A431BF4B9
:100B6000403F0260A2D0002243F644030192C4F247
:100B700002031A684FF6084C42F480421A601A6861
:100B8000CFF6FF7C02F480420192019A28F0030222
:100B9000724452F80C3007F00C050F24AC40A3430C
:100BA000009C04FA05F52B4342F80C30DEF80820CF
:100BB0004B6842EA090543F60C4CDC0258BF22EAB6
:100BC0000905CEF80850C4F2010CDCF800209C02A4
:100BD00042EA090558BF22EA0905CCF80050DEF8C0
:100BE00004209C0342EA090558BF22EA0905CEF811
:100BF0000450DEF80020DB0342EA090558BF22EA70
:100C00000905CEF80050012550E700BF02B0BDE84D
:100C1000F08F0000426902EA0103914341EA034177
:100C200081617047002A08BF090481617047000094
:100C300040F29800C2F200000068704740F20000E5
:100C400040F29801C2F20000C2F2000100780A6886
:100C5000104408607047000080B543F60040C4F2BD
:100C60000200016841F400710160016841F4806193
:100C70000160016841F480710160032000F088F890
:100C80000F2000F005F800F027F8002080BD0000DC
:100C900070B540F20006C2F2000640F20801327858
:100CA000C2F200014FF47A730968B3FBF2F2044612
:100CB000B1FBF2F1084600F059FB0F2C4FF0010593
:100CC00008D838B94FF0FF3021460022002500F047
:100CD00033F87460284670BD82B0002043F64001AE
:100CE0000190C4F202014A6842F480424A604A68B4
:100CF00002F480420192019A0090086840F080500E
:100D00000860086800F080500090009802B07047BA
:100D1000002848BF7047C1B200F01F00012202FA4C
:100D200000F04EF20012CEF2000242EAD10121F0B0
:100D3000030108607047000010B54EF60C5CCEF25F
:100D4000000CDCF80030C3F3022E8EF00704042CF4
:100D500028BF0424BEF103034FF0FF3E0EFA04F453
:100D600038BF0023A14399400EFA03F39A4311437D
:100D700000F00F0200F160430901043A03F56443F7
:100D80006244002848BF02F10C03197010BD000036
:100D90004EF60C51CEF200010A684FF6FF031A40DE
:100DA00060F30A2242F0806040F0FD7008607047F6
:100DB00070B582B00020019043F64000C4F20200FA
:100DC0000168402641F0805101600068C4F20E269F
:100DD00000F080500190019847F204050120C4F210
:100DE00000053060FFF724FF044600BF2868C003F9
:100DF00006D4FFF71DFF001BB0F57A7FF6D90EE091
:100E000001207060FFF714FF044600BF28688003CC
:100E100008D4FFF70DFF001BB0F57A7FF6D9032049
:100E200002B070BD002002B070BD00002DE9F0419D
:100E3000002800F08B8043F60808C4F2020804463C
:100E4000D8F8F8030D4600F00F00884207D288F862
:100E5000F853D8F8F80300F00F00A84276D12068C4
:100E6000810717D5410705D5D8F8001041F4E051A6
:100E7000C8F80010010705D5D8F8001041F460410A
:100E8000C8F80010D8F80010A26821F0F001114352
:100E9000C8F80010C0073FD1D8F8F80300F00F00E1
:100EA000A84207D988F8F853D8F8F80300F00F00E3
:100EB000A8424BD12068410707D5D8F80010E26856
:100EC00021F4E0511143C8F80010000708D5D8F804
:100ED0000000216920F4604040EAC100C8F8000029
:100EE00000F054F8D8F8001041F25662C1F3031133
:100EF000C0F60002515C40F2080220FA01F140F213
:100F00000400C2F200000068C2F200021160FFF7A4
:100F1000BFFE0020BDE8F0816068811E022907D273
:100F200058F8081C89015CBF0120BDE8F08111E080
:100F3000012807D158F8081C89035CBF0120BDE8CF
:100F4000F08107E058F8081C890703D40120BDE8A8
:100F5000F08100BFD8F8001021F003010843C8F861
:100F60000000FFF765FE064641F28837D8F800001A
:100F7000616800F00C00B0EB810F8DD0FFF758FED8
:100F8000801BB842F2D90320BDE8F08110B543F6CA
:100F90000404C4F20204606800F00C0008280BD0BE
:100FA000042819BF42F20040C0F2F40047F64000A6
:100FB000C0F27D1010BD00BF20682168236849027F
:100FC00047F64001C0F27D1100F03F02C3F38810E4
:100FD0005CBF42F20041C0F2F401A1FB000100231A
:100FE000FFF754F921680222C1F3014102EB4101EC
:100FF000B0FBF1F010BD00002DE9F04182B00028F7
:1010000068D00446007843F60006C007C4F2020622
:101010000BD0B06800F00C00042840F09F803068CE
:10102000800302D56068002854D0207880071AD544
:10103000B06810F00C0F09D0B06800F00C00082860
:1010400040F0A6807068400200F1A28030688007FE
:1010500002D5E06801283DD13068216920F0F80010
:1010600040EAC10030602078000737D4207840077C
:101070004CD4A56955B3B06800F00C00082840F0C6
:10108000BB80012D26D07068E16900F480028A429D
:1010900020D1216A00F03F028A421BD147F6C0717D
:1010A000626A0140B1EB821F14D1A16A4FF6FF734F
:1010B000C903994300F44032A1F580318A4209D135
:1010C000E16A00F07060B0EB016F03D1002002B064
:1010D000BDE8F081012002B0BDE8F0816069002820
:1010E00040F20000C4F2472076D00121C0F8801EF3
:1010F000FFF79EFD054600BF706F8007B6D4FFF76F
:1011000097FD401B0228F7D9DDE000BF306C10F0DE
:1011100080580AD100200190306C40F0805030643B
:10112000306C00F080500190019847F20007C4F243
:1011300000073868C00541D4386840F480703860D2
:10114000FFF776FD054600BF3868C00536D4FFF7C7
:101150006FFD401B0228F7D9B5E000BFB06800F072
:101160000C00082803D1706840023FF558AF606852
:10117000B0F5803F07D0B0F5A02F40F08D803068EB
:1011800040F480203060306840F4803030608DE082
:10119000E068002852D00020C4F2472001210160FD
:1011A000FFF746FD054600BF306880073FF554AFA6
:1011B000FFF73EFD401B0228F6D984E0A068012815
:1011C00005D005284ED1306F40F004003067306FF5
:1011D00040F0010030674FE00021C0F8801EFFF7AB
:1011E00027FD0546706F80077FF540AFFFF720FDB4
:1011F000401B0228F6D966E00027C4F247270020EA
:101200003866FFF715FD022D05460BD130688001C9
:101210005ED5FFF70DFD401B02284FF00300F5D906
:1012200055E700BF306880017FF550AFFFF700FD44
:10123000401B02284FF00300F4D948E70020C4F215
:10124000472000210160FFF7F3FC05463068800766
:101250007FF509AFFFF7ECFC401B02284FF00300BD
:10126000F4D934E7316F002821F001013167316F83
:1012700021F0040131674DD0FFF7DAFC054641F259
:10128000883700BF306F800756D4FFF7D1FC401B72
:10129000B842F7D917E000BF3168002821F4803147
:1012A0003160316821F4802131604FD0FFF7C0FCFC
:1012B000054600BF306880033FF5B7AEFFF7B8FCC6
:1012C000401B6428F6D9032002B0BDE8F08100BFBE
:1012D00004F11C052FCD084340EA8210D9034FF6D4
:1012E000FF729143A1F5803140EA056008437060C8
:1012F00001203866FFF79CFC044600BF306880017F
:101300003FF5E4AEFFF794FC001B02284FF003000A
:10131000F4D9DCE6FFF78CFC054641F2883700BFC4
:10132000306F800708D5FFF783FC401BB8424FF0B1
:101330000300F5D9CBE600BFB8F1000F7FF499AEFA
:10134000306C20F08050306493E600BFFFF770FCF3
:10135000054600BF306880037FF567AEFFF768FC85
:10136000401B64284FF00300F4D9B0E6411E002072
:10137000B0EB116F1CBF012070474EF21002CEF28D
:10138000000251604EF62351CEF20001F0230B70A3
:101390000721906011607047FEE7000080B540F2C1
:1013A000700046F20041C2F20000C4F200010023C6
:1013B000102280E80E00C0E90333C0E905338383BF
:1013C000FFF744FA002808BF80BDBDE88040FFF762
:1013D0001DB80000F0B587B0002543F63000069533
:1013E0000195C4F20200016841F2004441F001019C
:1013F00001600168C4F2020401F001010191019948
:1014000001950168012241F00801016001684FF473
:10141000804601F0080101910199019501680127B9
:1014200041F004010160016801F00401019101999A
:101430000195016841F080010160016801F08001BF
:10144000019101990195016841F020010160006856
:101450004FF4804100F02000019001982046FFF7F2
:10146000E1FB0220CDE9040502A92046CDE902678F
:10147000FFF7FCFA07B0F0BDFEE7000080B588B0CA
:1014800040F2032CCDF808C04FF0000CCDE904CC9D
:101490004FF0020CCDF818C04FEA102C8DF8010067
:1014A000080A8DF80200100A8DF80400180A8DF859
:1014B000060040F270008DF803108DF805208DF8BD
:1014C0000730C2F2000002A96A4601238DF800C06D
:1014D000FEF7BAFF08B080BDFEE7000070470000CD
:1014E00070470000FFF7AABB80B592B0002043F61A
:1014F0004001CDE90A00CDE908000590CDE90300DF
:10150000CDE901000090C4F202010A6842F0805265
:101510000A60096801F0805100910099009047F23B
:101520000000C4F20000016841F44041016000681D
:101530004FF4800100F44040009000980120069094
:101540004FF480300D910F21079002200E91D82189
:101550000C90CDE90F100420119006A8FFF74CFD68
:1015600020B1EFF3108072B6FEE700BFFFF720FC5A
:1015700020B1EFF3108072B6FEE700BF0F2001909C
:1015800002200290002003904FF4A05004904FF4EA
:101590008050059001A80521FFF748FC20B1EFF32A
:1015A000108072B6FEE700BF12B080BD4EF68850C4
:1015B000CEF20000016841F4700101607047000044
:1015C000FEE7000010B58AB040F27004012000214F
:1015D000C2F200040890CDE90610CDE90011CDE972
:1015E0000211CDE9041169462046FEF78DFF204621
:1015F000FFF7ECF920460221FEF70EFF0AB010BDFE
:10160000FFF72AFBFFF770FFFFF7E4FEFFF7C6FEC8
:10161000FFF7D8FF41F20044C4F2020442F2107016
:10162000002100220023FFF729FF20464FF48041CC
:10163000FFF7F0FA0A20FFF705FAEFE7F1EE100ADC
:101640004FF6FF71C0F2C03120EA010040F0407057
:10165000E1EE100A704700000000000000000102E7
:10166000030406070809000088160008000000208F
:1016700010000000E8010008981600081000002083
:1016800090060000040200080100000010000000A5
:081690000024F400000000003A
:04000005080001AD41
:00000001FF
