:020000040800F2
:10000000C0060020290200086F120008B111000884
:100010006D1200081F040008911500080000000080
:100020000000000000000000000000007312000843
:100030002104000800000000711200087512000879
:10004000430200084302000843020008430200087C
:10005000430200084302000843020008430200086C
:10006000430200084302000843020008430200085C
:10007000430200084302000843020008430200084C
:10008000430200084302000843020008430200083C
:10009000430200084302000843020008430200082C
:1000A000430200084302000843020008430200081C
:1000B000430200084302000843020008430200080C
:1000C00043020008430200084302000843020008FC
:1000D0004302000885150008430200084302000897
:1000E00043020008430200084302000843020008DC
:1000F00043020008430200084302000843020008CC
:1001000043020008430200084302000843020008BB
:1001100043020008430200084302000843020008AB
:10012000430200084302000843020008430200089B
:10013000430200084302000843020008430200088B
:10014000430200084302000843020008430200087B
:10015000430200084302000843020008430200086B
:10016000430200084302000843020008430200085B
:100170004302000843020008430200080000000098
:10018000430200084302000800F002F800F03CF8C7
:100190000AA090E8000C82448344AAF10107DA45E2
:1001A00001D100F031F8AFF2090EBAE80F0013F0F8
:1001B000010F18BFFB1A43F0010318474014000059
:1001C00060140000103A24BF78C878C1FAD85207EA
:1001D00024BF30C830C144BF04680C6070470000C1
:1001E0000023002400250026103A28BF78C1FBD840
:1001F000520728BF30C148BF0B6070471FB501F0E0
:10020000EBF91FBD10B510BD00F0CFF81146FFF798
:10021000F5FF01F0CFF900F0EDF803B4FFF7F2FFBE
:1002200003BC00F0F5F80000094880470948004782
:10023000FEE7FEE7FEE7FEE7FEE7FEE7FEE7FEE796
:10024000FEE7FEE704480549054A064B70470000F3
:100250000D13000889010008C0000020C00600201E
:10026000C0020020C002002053EA020C00F06980A6
:100270002DE9F04B4FF00006002B1FBFB3FA83F5BA
:1002800003FA05F424FA05F65E4012BF1643B2FAEB
:1002900082F502FA05F4C5F120051EBF22FA05FC1D
:1002A00044EA0C04203556EA044C4FEA144418BFC3
:1002B000641C4FF000084FF00009904271EB030CF2
:1002C00039D3002919BFB1FA81F701FA07F6B0FA5C
:1002D00080F700FA07F6C7F120071EBF20FA07FCD7
:1002E00046EA0C062037B6FBF4FCA7EB0507103FE7
:1002F00007F01F0BCBF120060CFA0BFB2CFA06F6CD
:1003000044BFB3460026202FA4BF5E464FF0000B2B
:100310005BEA060C08BF4FF0010B19EB0B09ABFBB6
:10032000027C48EB0608C01B06FB02CC0BFB03CC8F
:1003300071EB0C01C1E70B46024641464846BDE859
:10034000F08B13B54FF000004FF00001AFF30080C9
:10035000BDE81C4070474FF0000200B513469446BC
:100360009646203922BFA0E80C50A0E80C50B1F10D
:100370002001BFF4F7AF090728BFA0E80C5048BF21
:100380000CC05DF804EB890028BF40F8042B08BFBF
:10039000704748BF20F8022B11F0804F18BF00F8BB
:1003A000012B7047704770477047754600F02CF876
:1003B000AE4605006946534620F00700854618B052
:1003C00020B5FFF73FFFBDE820404FF000064FF09B
:1003D00000074FF000084FF0000B21F00701AC467A
:1003E000ACE8C009ACE8C009ACE8C009ACE8C00999
:1003F0008D46704710B50446AFF300802046BDE837
:100400001040FFF70ABF000000487047600000205E
:1004100001491820ABBEFEE7260002007047FEE748
:10042000704772B6FEE72DE9F0410446876D00F093
:100430005BF9064694F835000025022806D0802096
:10044000606584F834500120BDE8F08120680168BF
:1004500021F0160101602068416921F080014161AD
:10046000206C08B9A06C20B12068016821F0080157
:1004700001602068016821F0010101600CE000F0DA
:1004800033F9801B052807D920206065032084F8F4
:10049000350084F83450D7E720680068C007EED1F3
:1004A00094F85C103F208840B860012084F8350043
:1004B00084F834500020C7E790F83510022903D0A3
:1004C0008021416501207047052180F835100068C2
:1004D000016821F001010160002070472DE9F84F0B
:1004E000DFF8BCA10022012503264FF00F090AF115
:1004F000040BAAF1040E00BF0B6805FA02F42340B6
:10050000A34270D10F7907F00307012F01D0022F0A
:1005100016D187684FEA420806FA08FC27EA0C075A
:10052000D1F80CC00CFA08FC4CEA070CC0F808C063
:100530004768A7430C79C4F3001494403C434460DB
:100540000C79E443A4070AD0C4684FEA420C06FAC7
:100550000CF7BC438F6807FA0CF72743C7600C7988
:1005600004F00304022C12D1D40800EB840CDCF854
:1005700020405707FF0E09FA07F824EA0804D1F8CB
:10058000108008FA07F848EA0408CCF820800468CC
:100590004FEA420C06FA0CF7BC430F7907F0030749
:1005A00007FA0CF7274307604C6814F4403F70D0FB
:1005B0003C4C276847F480472760246822F00307F3
:1005C00004F480440094384C07EB040CDCF8084831
:1005D00097074FEA177809FA08F7BC43334FB84238
:1005E00002D1002724E054E0314FB84201D1012765
:1005F0001EE0304FB84201D1022719E02E4FB84219
:1006000001D1032714E02D4FB84201D104270FE098
:100610002B4FB84201D105270AE02A4FB84201D139
:10062000062705E0284FB84201D1072700E0082738
:1006300007FA08F72743CCF80878DAF8004057465D
:10064000D1F804C09C435FEACC2C00D51C433C602D
:10065000DBF800405F46D1F804C09C435FEA8C2C75
:1006600000D51C433C60DEF800407746D1F804C05A
:100670009C435FEA8C3C00D51C433C60084F083F1C
:100680003C68D1F804C09C435FEACC3C00D51C43D5
:100690003C60521C102AFFF42FAFBDE8F88F000019
:1006A000083C014044380240003001400000024054
:1006B0000004024000080240000C0240001002400A
:1006C0000014024000180240001C0240426921EA66
:1006D00002030A4043EA0241816170470AB1816125
:1006E00070470904FBE7000001488068704700007C
:1006F0000C00002002488168027811448160704734
:100700000C0000200B4810B5016841F40071016035
:10071000016841F480610160016841F48071016009
:10072000032000F06FF80F2000F006F800F024F826
:10073000002010BD003C024070B50D4D04464FF442
:100740007A712878B1FBF0F00A490968B1FBF0F042
:1007500000F00CFB48B9102C07D200222146501E95
:1007600000F030F800206C6070BD012070BD00000A
:100770000C000020180000200A4808B5016841F468
:1007800080410160006800F4804000900548001F2F
:10079000016841F080510160006800F080500090D5
:1007A00008BD000044380240002809DB00F01F02A9
:1007B000012191404009800000F1E020C0F80011C3
:1007C00070470000F0B40E4B1B680C46C3F30223C5
:1007D000C3F10705042D00D90425191D072901D2ED
:1007E000002300E0DB1E012606FA05F1491E214028
:1007F00099409E40761E16403143F0BC00F0C9BEC1
:100800000CED00E0064900F0070208684FF6FF0310
:10081000184040EA0220034A104308607047000075
:100820000CED00E00000FA052DE9F0470E4605004A
:1008300065D0DFF81481D8F80000F7B200F00700A7
:10084000B04207D288F80070D8F8000000F0070026
:10085000B04254D128683D4C810712D5400703D5DA
:10086000206840F4E05020602878000703D5206815
:1008700040F4604020602068A96820F0F000084340
:1008800020602878C0072DD03049686808390128D1
:1008900012D0022813D0032811D009688907002933
:1008A0002DDA216821F0030101432160FFF71CFFCD
:1008B000814641F2883A0EE009688903EFE709684A
:1008C0008901ECE7FFF710FFA0EB0901514502D9C0
:1008D0000320BDE8F0872068696800F00C00B0EBE9
:1008E000810FEFD1D8F80010404601F00701B14266
:1008F00007D90770006800F00700B04201D001205E
:10090000E7E72878400705D52068E96820F4E0503B
:10091000084320602878000706D52068296920F45C
:10092000604040EAC100206000F038F82168084AC1
:10093000C1F30311515CC8400649086006480068CD
:10094000FFF7FAFE0020C4E7003C024008380240EE
:10095000E215000818000020100000200448054996
:1009600000680968044AC1F38221515CC84070479D
:100970001800002008380240F21500080448054914
:1009800000680968044AC1F34231515CC8407047AD
:100990001800002008380240F2150008154810B56C
:1009A000006810F00C02144813D01449042A0FD028
:1009B000082A0ED10F4C241F2268236802F03F0240
:1009C0005B0207D52068C0F38810A0FB010106E098
:1009D000084610BD2168C1F38811A1FB0001002366
:1009E000FFF742FC2168C1F30141491C4900B0FBFB
:1009F000F1F010BD083802400024F40040787D0179
:100A00002DE9F84F04006ED02078DFF84C93C00732
:100A1000A9F104054AD009F104000168C1F381017C
:100A2000012908D00068C0F3810002280AD1D9F852
:100A30000000400206D52868800337D5606800288A
:100A4000E1D033E06068B0F5803F10D0B0F5A02F62
:100A5000286810D020F480302860286820F4802096
:100A600028606068A8B1FFF73FFE06460DE02868E1
:100A700040F48030F4E740F480202860F7E700BFBE
:100A8000FFF732FE801B642873D828688003F7D5EF
:100A90000CE0FFF729FE064605E000BFFFF724FE45
:100AA000801B6428F0D828688003F7D42078DFF80A
:100AB000AC8280074FF0000A3ED5A748001D0168B0
:100AC00011F00C0F08D00068C0F3810002280BD190
:100AD000D9F80000400207D42868800716D5E068DE
:100AE000012800D112E033E1E068B8B10120C8F874
:100AF0000000FFF7F9FD064605E000BFFFF7F4FD33
:100B0000801B0228C0D828688007F7D5286821698B
:100B100020F0F80040EAC10028600DE0C8F800A00D
:100B2000FFF7E2FD064604E0FFF7DEFD801B02282A
:100B30001FD828688007F7D42078000722D5864F71
:100B400087486169703771B101210160FFF7CCFD01
:100B5000064604E0FFF7C8FD801B022809D8386864
:100B60008007F7D50EE0C0F800A0FFF7BDFD0646F0
:100B700005E082E0FFF7B8FD801B02287DD83868C9
:100B80008007F7D42078400768D5DFF8CCB100277C
:100B90000BF13C0BDBF80000C0000BD4DBF80010BD
:100BA00041F08051CBF80010DBF80000012700F085
:100BB000805000906B4E3068C00510D4306840F40F
:100BC00080703060FFF790FD009005E0FFF78CFD2E
:100BD0000099401A022850D83068C005F6D55E4EFC
:100BE000A0686C3601280FD00528306810D020F09E
:100BF00001003060306820F004003060A068B8B1B7
:100C0000FFF772FD00900FE0306840F00100F4E75C
:100C100040F004003060F7E7FFF766FD0099411AE5
:100C200041F28830814266D830688007F4D50EE002
:100C3000FFF75AFD009007E0FFF756FD0099411AB3
:100C400041F28830814256D830688007F4D42FB101
:100C5000DBF8001021F08051CBF80010A069C8B378
:100C60003D49091D0968C1F3810102294AD00228C2
:100C7000504607D0C8F8600000E03CE0FFF734FDC4
:100C800004463BE04746C8F86000FFF72DFD0646E6
:100C900005E000BFFFF728FD801B02282BD828683D
:100CA0008001F7D4D4E907010843A16A2E4A490814
:100CB00002EB0141626A41EA8211084394F82C1068
:100CC00040EA0161C9F8001001203866FFF70CFD09
:100CD000044606E03EE000BFFFF706FD001B0228C9
:100CE00009D828688001F7D534E000BFFFF7FCFC85
:100CF000001B022802D90320BDE8F88F2868800174
:100D0000F4D427E00128F7D0D9F80000E26900F414
:100D1000800191421CD1226A00F03F01914217D11B
:100D200047F6C071626A0140B1EB821F10D1A26A1E
:100D30004FF0FF3300F4403103EB5202B1EB024FAE
:100D400006D194F82C1000F07060B0EB016F01D068
:100D50000120D1E70020CFE70438024000004742DD
:100D6000800E4742007000400000FFFF10B5401E9B
:100D7000B0F1807F01D3012010BD4FF0E02460610D
:100D80000F21601700F005FC0020A0610720206102
:100D9000002010BD70477047F8B501680446086828
:100DA000CA684B6910F00F0F4FF0000559D003F0DF
:100DB000010602F49077374365D0C10705D0D1050D
:100DC00003D5216C41F001012164410705D5D90704
:100DD00003D0216C41F002012164810705D5D907B8
:100DE00003D0216C41F004012164010707D502F012
:100DF0002001314303D0216C41F008012164216CB2
:100E000000293AD0800604D5900602D5204600F08D
:100E1000B4FA20684069216CC0F38010090700D43F
:100E200060B3204600F082FA20684069400621D570
:100E30002068143050E8001F21F0400140E8001203
:100E4000002AF5D1A06BA8B16C490165A06BFFF732
:100E500033FB002811D0A06B016D01B0BDE8F0405C
:100E6000084783060FD593060DD52046BDE8F84008
:100E700000F083BA2046FFF78EFFF8BD2046FFF74B
:100E80008AFF2564F8BD266B2023012E79D1C60682
:100E900077D5D60675D50868486800904869400639
:100EA00040D5A16B086840680004000CEAD0A28D10
:100EB0008242E7D9E085C869B0F5807F2DD02068EF
:100EC0000C3050E8001F21F4807140E80012002A25
:100ED000F5D12068143050E8001F21F0010140E8EE
:100EE0000012002AF5D12068143050E8001F21F0CC
:100EF000400140E80012002AF5D184F83E30256315
:100F000020680C3050E8001F21F0100140E800126A
:100F1000002AF5D1A06BFFF786FAA08DE18D401A6B
:100F200081B229E0A08DE18D401A81B2E08D0028C8
:100F3000A8D00029A6D020680C3050E8002F22F459
:100F4000907240E80026002EF5D12068143050E859
:100F5000002F22F0010240E80026002EF5D184F88F
:100F60003E30256320680C3050E8002F22F010023C
:100F700040E80023002BF5D12046FFF70BFFF8BD1A
:100F8000FFE705062BD5150629D594F83D00212845
:100F9000F5D1A068B0F5805F01D12069B0B1206AB9
:100FA000411C2162216800784860E08C401E0004EA
:100FB000000CE084E3D12068C16821F08001C160A9
:100FC0002068C16841F04001C160D8E7206A00880C
:100FD000C0F308004860206A801C2062E5E74006F4
:100FE000CDD55006CBD5CA68204622F04002CA6053
:100FF00084F83D3000F0DBF8C1E700001D13000865
:1010000070B5040004D094F83D00002510B106E04E
:10101000012070BD84F83C50204600F023F82420C5
:1010200084F83D002068C16821F40051C160204669
:1010300000F004FA2068016921F490410161206800
:10104000416921F02A0141612068C16841F40051E1
:10105000C1602564202084F83D0084F83E00002013
:1010600070BD0000F0B587B0044614216846FFF754
:1010700072F92049206888423AD11F48002401684B
:1010800041F010010160006800F0100005901A485E
:101090001438016841F002010160016801F00201A9
:1010A0000591016841F0010101600068022500F02E
:1010B000010005908020CDE9000502AA032607273C
:1010C00082E8D00069460D48FFF708FA2802CDE90A
:1010D000000502AA694682E8D0000948FFF7FEF938
:1010E000002211462520FFF76DFB2520FFF75CFB52
:1010F00007B0F0BD00100140443802400004024037
:101100000000024090F83E30202B0ED159B152B170
:1011100090F83C30012B08D0012380F83C300023AC
:10112000036300F011BA01207047022070470000ED
:1011300010B500680A49884211D1052209490A48B8
:1011400000F016F807490422091F0748FFF7DAFFE5
:10115000BDE810404FF400610448FFF7B7BA10BD76
:1011600000100140040000201C000020001C024070
:1011700090F83D30202B18D1A9B1A2B190F83C30A5
:10118000012B12D001628284C284002101642122D9
:1011900080F83D2080F83C100068C16841F0800173
:1011A000C1600020704701207047022070477047DF
:1011B000FEE7000070B586B014216846FFF7CBF853
:1011C0001A480024016841F001010160016801F042
:1011D00001010591016841F002010160016801F01F
:1011E00002010591016841F004010160016801F00C
:1011F00004010591016841F08001016000680C4E16
:1012000000F080004FF4006505900022294630462A
:10121000FFF764FA01200095CDE9010469463046E4
:101220000394FFF75BF906B070BD00003038024050
:10123000001C02400C4810B50A4901604FF4E1312E
:101240004160002181600C22C160C0E9041281610B
:10125000C161FFF7D5FE002803D0BDE81040FFF7BD
:10126000E0B810BD001001401C000020FEE7FEE7C2
:1012700070477047FFF73EBA30B593B030216846EB
:10128000FFF769F814210CA8FFF765F81D48002541
:10129000016841F080510160006800F080501190B9
:1012A0001948016841F4804101600068022400F49B
:1012B0008040119001200390102004900094069427
:1012C0000820CDE90750A820CDE9090404200B909F
:1012D0006846FFF795FB08B172B6FEE70CA90F2030
:1012E00081E831004FF4A0500F904FF480501090DF
:1012F00005210CA8FFF798FA002801D072B6FEE786
:1013000013B030BD40380240007000400248016810
:1013100041F470010160704788ED00E010B5806B0A
:101320000021C185C184FFF736FD10BD01680C3175
:1013300051E8002F22F4907241E80023002BF5D1F0
:101340000168143151E8002F22F0010241E8002326
:10135000002BF5D1016B012909D101680C3151E84D
:10136000002F22F0100241E80023002BF5D12021AC
:1013700080F83E1000210163704708B590F83E10D8
:10138000222901D0022008BD82684FF480539A427E
:1013900001D1016921B1816A9A421BD04AB10AE0A8
:1013A0000268816A5268C2F308020A80816A891C55
:1013B00008E0026972B10268526802F07F020A70A6
:1013C000816A491C8162C18D491E0904090CC185CD
:1013D00003D019E002685268F1E70168CA6822F098
:1013E0002002CA600168CA6822F48072CA6001687B
:1013F0004A6922F001024A61202180F83E10016B07
:10140000012903D0FFF794FE002008BD00210163ED
:1014100001680C3151E8002F22F0100241E800234E
:10142000002BF5D101680A68D20602D50A6849681E
:101430000091818DFFF7AEFCE6E7000070B5044631
:1014400000680169E26821F440511143016121699A
:10145000A068E26908436169114308432168CA68CA
:1014600049F20C639A430243CA6020684169A26949
:1014700021F440711143416131492068884202D012
:101480003049884202D1FFF779FA01E0FFF766FAA6
:10149000E2690023192164253226B2F5004F626803
:1014A00028D0A0FB0101930F9200FEF7DDFE01465C
:1014B000B0FBF5F06FF01802504301EB800006EB33
:1014C0000010B0FBF5F000F0F002B1FBF5F002EB1C
:1014D0000012B1FBF5F06FF01803584301EB8000E8
:1014E00006EB0010B0FBF5F000F00F00216810448F
:1014F000886070BDA0FB010192185B41FEF7B4FE4D
:101500000146B0FBF5F00201B1FBF5F06FF01803F6
:10151000584301EB800006EBC000B0FBF5F000F093
:10152000F80002EB4002B1FBF5F0584301EB8000FC
:1015300006EBC000B0FBF5F000F00700D6E70000B6
:10154000001001400014014081628285C2850021A3
:101550000164222280F83E2080F83C10016921B10C
:101560000168CA6842F48072CA6001684A6942F040
:1015700001024A610068C16841F02001C160002099
:10158000704700000148FFF707BC00001C00002066
:10159000FEE70907090E002804DB00F1E02080F8CF
:1015A0000014704700F00F0000F1E02080F8141DD7
:1015B00070470000FFF7A6F8FFF75EFEFFF7FAFDA1
:1015C000FFF738FE042202490248FFF79BFDFEE7C1
:1015D000000000201C0000204FF04070E1EE100AD7
:1015E000704700000000000000000102030406072D
:1015F0000809000000000102030400001C16000896
:10160000000000201C000000C4010008381600087B
:101610001C000020A4060000E001000800000000FB
:101620004F4B2121000000000100000010000000CD
:08163000000000000024F4009A
:040000050800018965
:00000001FF
